{
  "contractName": "Certificate",
  "abi": [
    {
      "anonymous": false,
      "inputs": [
        {
          "indexed": false,
          "internalType": "uint256",
          "name": "id",
          "type": "uint256"
        },
        {
          "indexed": false,
          "internalType": "string",
          "name": "studentName",
          "type": "string"
        },
        {
          "indexed": false,
          "internalType": "string",
          "name": "course",
          "type": "string"
        },
        {
          "indexed": false,
          "internalType": "uint256",
          "name": "issueDate",
          "type": "uint256"
        }
      ],
      "name": "CertificateRegistered",
      "type": "event"
    },
    {
      "anonymous": false,
      "inputs": [
        {
          "indexed": false,
          "internalType": "uint256",
          "name": "id",
          "type": "uint256"
        }
      ],
      "name": "CertificateRevoked",
      "type": "event"
    },
    {
      "inputs": [
        {
          "internalType": "uint256",
          "name": "_id",
          "type": "uint256"
        },
        {
          "internalType": "string",
          "name": "_studentName",
          "type": "string"
        },
        {
          "internalType": "string",
          "name": "_course",
          "type": "string"
        }
      ],
      "name": "registerCertificate",
      "outputs": [],
      "stateMutability": "nonpayable",
      "type": "function"
    },
    {
      "inputs": [
        {
          "internalType": "uint256",
          "name": "_id",
          "type": "uint256"
        }
      ],
      "name": "getCertificate",
      "outputs": [
        {
          "internalType": "uint256",
          "name": "",
          "type": "uint256"
        },
        {
          "internalType": "string",
          "name": "",
          "type": "string"
        },
        {
          "internalType": "string",
          "name": "",
          "type": "string"
        },
        {
          "internalType": "uint256",
          "name": "",
          "type": "uint256"
        },
        {
          "internalType": "bool",
          "name": "",
          "type": "bool"
        }
      ],
      "stateMutability": "view",
      "type": "function",
      "constant": true
    },
    {
      "inputs": [
        {
          "internalType": "uint256",
          "name": "_id",
          "type": "uint256"
        }
      ],
      "name": "revokeCertificate",
      "outputs": [],
      "stateMutability": "nonpayable",
      "type": "function"
    }
  ],
  "bytecode": "0x608060405234801561000f575f80fd5b50610cc78061001d5f395ff3fe608060405234801561000f575f80fd5b506004361061003f575f3560e01c806306f5497e1461004357806351640fee1461005f5780638d7ff1bd14610093575b5f80fd5b61005d60048036038101906100589190610535565b6100af565b005b61007960048036038101906100749190610535565b6101ce565b60405161008a959493929190610613565b60405180910390f35b6100ad60048036038101906100a8919061079e565b6103c0565b005b5f805f8381526020019081526020015f206003015403610104576040517f08c379a00000000000000000000000000000000000000000000000000000000081526004016100fb90610870565b60405180910390fd5b600115155f808381526020019081526020015f206004015f9054906101000a900460ff1615151461016a576040517f08c379a0000000000000000000000000000000000000000000000000000000008152600401610161906108d8565b60405180910390fd5b5f805f8381526020019081526020015f206004015f6101000a81548160ff0219169083151502179055507fefa6c5f47ac2523bb4db18032377bf7fdce0fa9d86eddcae1ca9bba38be615d7816040516101c391906108f6565b60405180910390a150565b5f6060805f805f805f8881526020019081526020015f206003015403610229576040517f08c379a000000000000000000000000000000000000000000000000000000000815260040161022090610870565b60405180910390fd5b5f805f8881526020019081526020015f206040518060a00160405290815f820154815260200160018201805461025e9061093c565b80601f016020809104026020016040519081016040528092919081815260200182805461028a9061093c565b80156102d55780601f106102ac576101008083540402835291602001916102d5565b820191905f5260205f20905b8154815290600101906020018083116102b857829003601f168201915b505050505081526020016002820180546102ee9061093c565b80601f016020809104026020016040519081016040528092919081815260200182805461031a9061093c565b80156103655780601f1061033c57610100808354040283529160200191610365565b820191905f5260205f20905b81548152906001019060200180831161034857829003601f168201915b5050505050815260200160038201548152602001600482015f9054906101000a900460ff1615151515815250509050805f01518160200151826040015183606001518460800151955095509550955095505091939590929450565b5f805f8581526020019081526020015f206003015414610415576040517f08c379a000000000000000000000000000000000000000000000000000000000815260040161040c906109b6565b60405180910390fd5b6040518060a00160405280848152602001838152602001828152602001428152602001600115158152505f808581526020019081526020015f205f820151815f0155602082015181600101908161046c9190610b71565b5060408201518160020190816104829190610b71565b50606082015181600301556080820151816004015f6101000a81548160ff0219169083151502179055509050507f822110d47cfd03324413d25e846fa6a80266a4657b2b8c83da8a1f83e0ec037c838383426040516104e49493929190610c40565b60405180910390a1505050565b5f604051905090565b5f80fd5b5f80fd5b5f819050919050565b61051481610502565b811461051e575f80fd5b50565b5f8135905061052f8161050b565b92915050565b5f6020828403121561054a576105496104fa565b5b5f61055784828501610521565b91505092915050565b61056981610502565b82525050565b5f81519050919050565b5f82825260208201905092915050565b5f5b838110156105a657808201518184015260208101905061058b565b5f8484015250505050565b5f601f19601f8301169050919050565b5f6105cb8261056f565b6105d58185610579565b93506105e5818560208601610589565b6105ee816105b1565b840191505092915050565b5f8115159050919050565b61060d816105f9565b82525050565b5f60a0820190506106265f830188610560565b818103602083015261063881876105c1565b9050818103604083015261064c81866105c1565b905061065b6060830185610560565b6106686080830184610604565b9695505050505050565b5f80fd5b5f80fd5b7f4e487b71000000000000000000000000000000000000000000000000000000005f52604160045260245ffd5b6106b0826105b1565b810181811067ffffffffffffffff821117156106cf576106ce61067a565b5b80604052505050565b5f6106e16104f1565b90506106ed82826106a7565b919050565b5f67ffffffffffffffff82111561070c5761070b61067a565b5b610715826105b1565b9050602081019050919050565b828183375f83830152505050565b5f61074261073d846106f2565b6106d8565b90508281526020810184848401111561075e5761075d610676565b5b610769848285610722565b509392505050565b5f82601f83011261078557610784610672565b5b8135610795848260208601610730565b91505092915050565b5f805f606084860312156107b5576107b46104fa565b5b5f6107c286828701610521565b935050602084013567ffffffffffffffff8111156107e3576107e26104fe565b5b6107ef86828701610771565b925050604084013567ffffffffffffffff8111156108105761080f6104fe565b5b61081c86828701610771565b9150509250925092565b7f4365727469666963617465206e6f7420666f756e642e000000000000000000005f82015250565b5f61085a601683610579565b915061086582610826565b602082019050919050565b5f6020820190508181035f8301526108878161084e565b9050919050565b7f436572746966696361746520616c7265616479207265766f6b65642e000000005f82015250565b5f6108c2601c83610579565b91506108cd8261088e565b602082019050919050565b5f6020820190508181035f8301526108ef816108b6565b9050919050565b5f6020820190506109095f830184610560565b92915050565b7f4e487b71000000000000000000000000000000000000000000000000000000005f52602260045260245ffd5b5f600282049050600182168061095357607f821691505b6020821081036109665761096561090f565b5b50919050565b7f436572746966696361746520616c726561647920726567697374657265642e005f82015250565b5f6109a0601f83610579565b91506109ab8261096c565b602082019050919050565b5f6020820190508181035f8301526109cd81610994565b9050919050565b5f819050815f5260205f209050919050565b5f6020601f8301049050919050565b5f82821b905092915050565b5f60088302610a307fffffffffffffffffffffffffffffffffffffffffffffffffffffffffffffffff826109f5565b610a3a86836109f5565b95508019841693508086168417925050509392505050565b5f819050919050565b5f610a75610a70610a6b84610502565b610a52565b610502565b9050919050565b5f819050919050565b610a8e83610a5b565b610aa2610a9a82610a7c565b848454610a01565b825550505050565b5f90565b610ab6610aaa565b610ac1818484610a85565b505050565b5b81811015610ae457610ad95f82610aae565b600181019050610ac7565b5050565b601f821115610b2957610afa816109d4565b610b03846109e6565b81016020851015610b12578190505b610b26610b1e856109e6565b830182610ac6565b50505b505050565b5f82821c905092915050565b5f610b495f1984600802610b2e565b1980831691505092915050565b5f610b618383610b3a565b9150826002028217905092915050565b610b7a8261056f565b67ffffffffffffffff811115610b9357610b9261067a565b5b610b9d825461093c565b610ba8828285610ae8565b5f60209050601f831160018114610bd9575f8415610bc7578287015190505b610bd18582610b56565b865550610c38565b601f198416610be7866109d4565b5f5b82811015610c0e57848901518255600182019150602085019450602081019050610be9565b86831015610c2b5784890151610c27601f891682610b3a565b8355505b6001600288020188555050505b505050505050565b5f608082019050610c535f830187610560565b8181036020830152610c6581866105c1565b90508181036040830152610c7981856105c1565b9050610c886060830184610560565b9594505050505056fea2646970667358221220b1d78b353ff045b8465e65a6e47e5c9ae993f9ce45ff008f529474db87a8106164736f6c63430008150033",
  "immutableReferences": {},
  "source": "// SPDX-License-Identifier: MIT\r\npragma solidity ^0.8.0;\r\n\r\ncontract Certificate {\r\n    // Estrutura do Certificado\r\n    struct CertificateData {\r\n        uint id;\r\n        string studentName;\r\n        string course;\r\n        uint256 issueDate;\r\n        bool isValid;\r\n    }\r\n\r\n    // Mapeamento de certificados pelo ID\r\n    mapping(uint => CertificateData) private certificates;\r\n\r\n    // Evento para emitir quando um certificado  registrado\r\n    event CertificateRegistered(uint id, string studentName, string course, uint256 issueDate);\r\n    \r\n    // Evento para emitir quando um certificado  revogado\r\n    event CertificateRevoked(uint id);\r\n\r\n    // Funo para registrar um novo certificado\r\n    function registerCertificate(uint _id, string memory _studentName, string memory _course) public {\r\n        require(certificates[_id].issueDate == 0, \"Certificate already registered.\");\r\n\r\n        certificates[_id] = CertificateData({\r\n            id: _id,\r\n            studentName: _studentName,\r\n            course: _course,\r\n            issueDate: block.timestamp,\r\n            isValid: true\r\n        });\r\n\r\n        emit CertificateRegistered(_id, _studentName, _course, block.timestamp);\r\n    }\r\n\r\n    // Funo para consultar um certificado\r\n    function getCertificate(uint _id) public view returns (uint, string memory, string memory, uint256, bool) {\r\n        require(certificates[_id].issueDate != 0, \"Certificate not found.\");\r\n\r\n        CertificateData memory cert = certificates[_id];\r\n        return (cert.id, cert.studentName, cert.course, cert.issueDate, cert.isValid);\r\n    }\r\n\r\n    // Funo para revogar um certificado\r\n    function revokeCertificate(uint _id) public {\r\n        require(certificates[_id].issueDate != 0, \"Certificate not found.\");\r\n        require(certificates[_id].isValid == true, \"Certificate already revoked.\");\r\n\r\n        certificates[_id].isValid = false;\r\n\r\n        emit CertificateRevoked(_id);\r\n    }\r\n}\r\n",
  "sourcePath": "C:\\Users\\jvmmi\\meu-projeto\\contracts\\Certificate.sol",
  "compiler": {
    "name": "solc",
    "version": "0.8.21+commit.d9974bed.Emscripten.clang"
  },
  "schemaVersion": "3.4.16",
  "updatedAt": "2024-11-16T19:54:49.030Z",
  "networkType": "ethereum",
  "devdoc": {
    "kind": "dev",
    "methods": {},
    "version": 1
  },
  "userdoc": {
    "kind": "user",
    "methods": {},
    "version": 1
  }
}